:0200000480007A
:1000000097210000938181C317110000130181FF24
:08001000330401006F00802998
:10001800130101FE232E8100130401022326A4FEEE
:100028008327C4FE23A007008327C4FE23A4070058
:10003800130000000324C1011301010267800000BE
:10004800130101FE232E8100130401022326A4FEBE
:10005800130000000324C10113010102678000009E
:10006800130101FE232E8100130401022326A4FE9E
:100078008327C4FE23A207008327C4FE1307F0FFCB
:1000880023A0E700130000000324C10113010102AB
:1000980067800000130101FE232E81001304010272
:1000A8002326A4FE8327C4FE83A7470093D707010E
:1000B80093F7F70F138507000324C1011301010209
:1000C80067800000130101FE232E81001304010242
:1000D8002326A4FE8327C4FE83A7470093D787015E
:1000E800138507000324C101130101026780000082
:1000F800130101FE232E1100232C81001304010299
:100108002326A4FE2324B4FE130000000325C4FE06
:10011800EFF05FF893070500E38A07FE8327C4FE24
:10012800032784FE23A0E700130000008320C101F9
:10013800032481011301010267800000130101FEFD
:10014800232E8100130401022326A4FE2324B4FED7
:10015800832784FE03A7C7008327C4FE23A4E700E0
:10016800832784FE83A707001387F7FF832784FE6E
:1001780083A74700939787003367F700832784FE98
:1001880083A78700939707013367F7008327C4FE87
:1001980023A6E700130000000324C1011301010294
:1001A80067800000130101FE232E81001304010261
:1001B8002326A4FE8327C4FE83A7070093F72700FE
:1001C800B337F00093F7F70F138507000324C10135
:1001D8001301010267800000130101FE232E810034
:1001E800130401022326A4FE8327C4FE130710006C
:1001F80023A0E700130000000324C101130101023A
:1002080067800000130101FE232E1100232C8100BA
:10021800130401022326A4FE8327C4FE23A007009B
:10022800130000000325C4FEEFF0DFF79307050075
:10023800E39A07FE13000000130000008320C101A9
:10024800032481011301010267800000130101FEEC
:10025800232E1100232C8100130401022326A4FE5F
:100268006F0000028327C4FE138717002326E4FECD
:1002780083C7070093850700370501F0EFF05FE7B4
:100288008327C4FE83C70700E39E07FC1300000012
:10029800130000008320C10103248101130101021E
:1002A80067800000130101FD232611022324810227
:1002B8001304010393078000232AF4FC232C04FC75
:1002C800232E04FC930750032320F4FE930744FDD8
:1002D80093850700370501F0EFF05FE6170500008A
:1002E8001305C511EFF09FF6930700032326F4FECC
:1002F8006F00C0018325C4FE370501F0EFF05FDF12
:100308008327C4FE938717002326F4FE0327C4FE21
:1003180093079003E3F0E7FE930710062324F4FE07
:100328006F00C001832584FE370501F0EFF05FDC24
:10033800832784FE938717002324F4FE032784FE73
:100348009307A007E3F0E7FE930710042322F4FEC7
:100358006F00C001832544FE370501F0EFF05FD937
:10036800832744FE938717002322F4FE032744FEC5
:100378009307A005E3F0E7FE6FF01FF7130101FFF5
:100388002326810013040101130000000324C10087
:08039800130101016780000060
:1003A000600000002003000070000000F002000068
:1003B000020000000D0200000C000000EC01000033
:1003C000080000004600000010000000400000008F
:1003D00002000000300000000800000028000000BB
:1003E00008000000B800000010000000B00000008D
:1003F0000200000082000000060000007E000000F5
:0904000048656C6C6F20210A00B4
:10040C001400000000000000037A5200017C01017E
:10041C001B0D020701000000100000001C00000072
:0C042C00D4FBFFFF1800000000000000DF
:040000058000000077
:00000001FF
